{
  "contractName": "Image",
  "abi": [
    {
      "inputs": [
        {
          "internalType": "uint256",
          "name": "",
          "type": "uint256"
        }
      ],
      "name": "imagesAddress",
      "outputs": [
        {
          "internalType": "string",
          "name": "",
          "type": "string"
        }
      ],
      "stateMutability": "view",
      "type": "function",
      "constant": true
    },
    {
      "inputs": [
        {
          "internalType": "string",
          "name": "_imagesAddress",
          "type": "string"
        },
        {
          "internalType": "uint256[]",
          "name": "_confidences",
          "type": "uint256[]"
        },
        {
          "internalType": "string[]",
          "name": "_tags",
          "type": "string[]"
        },
        {
          "internalType": "string",
          "name": "_imageInfo",
          "type": "string"
        },
        {
          "internalType": "string",
          "name": "_gpsInfo",
          "type": "string"
        }
      ],
      "name": "set",
      "outputs": [],
      "stateMutability": "nonpayable",
      "type": "function"
    },
    {
      "inputs": [],
      "name": "getAllAddress",
      "outputs": [
        {
          "internalType": "string[]",
          "name": "",
          "type": "string[]"
        }
      ],
      "stateMutability": "view",
      "type": "function",
      "constant": true
    },
    {
      "inputs": [
        {
          "internalType": "string",
          "name": "_address",
          "type": "string"
        }
      ],
      "name": "getByAddress",
      "outputs": [
        {
          "internalType": "uint256[]",
          "name": "",
          "type": "uint256[]"
        },
        {
          "internalType": "string[]",
          "name": "",
          "type": "string[]"
        },
        {
          "internalType": "string",
          "name": "",
          "type": "string"
        },
        {
          "internalType": "string",
          "name": "",
          "type": "string"
        }
      ],
      "stateMutability": "view",
      "type": "function",
      "constant": true
    },
    {
      "inputs": [],
      "name": "length",
      "outputs": [
        {
          "internalType": "uint256",
          "name": "",
          "type": "uint256"
        }
      ],
      "stateMutability": "view",
      "type": "function",
      "constant": true
    },
    {
      "inputs": [
        {
          "internalType": "string",
          "name": "_address",
          "type": "string"
        }
      ],
      "name": "contains",
      "outputs": [
        {
          "internalType": "bool",
          "name": "",
          "type": "bool"
        }
      ],
      "stateMutability": "view",
      "type": "function",
      "constant": true
    },
    {
      "inputs": [
        {
          "internalType": "string",
          "name": "s1",
          "type": "string"
        },
        {
          "internalType": "string",
          "name": "s2",
          "type": "string"
        }
      ],
      "name": "compareStringsbyBytes",
      "outputs": [
        {
          "internalType": "bool",
          "name": "",
          "type": "bool"
        }
      ],
      "stateMutability": "pure",
      "type": "function",
      "constant": true
    }
  ],
  "bytecode": "0x608060405234801561001057600080fd5b5061124d806100206000396000f3fe608060405234801561001057600080fd5b506004361061007d5760003560e01c8063715b208b1161005b578063715b208b146100ec578063e9a734ff1461010a578063ec75cf611461013a578063ef6001b31461016a5761007d565b80631f7b6d321461008257806338351a72146100a05780636833d54f146100bc575b600080fd5b61008a61019d565b6040516100979190611029565b60405180910390f35b6100ba60048036038101906100b59190610bff565b6101a9565b005b6100d660048036038101906100d19190610bbe565b6102b0565b6040516100e39190610fec565b60405180910390f35b6100f46103a7565b6040516101019190610f69565b60405180910390f35b610124600480360381019061011f9190610cee565b610490565b6040516101319190610fec565b60405180910390f35b610154600480360381019061014f9190610d5a565b6104e9565b6040516101619190611007565b60405180910390f35b610184600480360381019061017f9190610bbe565b6105a2565b6040516101949493929190610f8b565b60405180910390f35b60008080549050905090565b6101b2856102b0565b6102a9576000859080600181540180825580915050600190039060005260206000200160009091909190915090805190602001906101f19291906108a8565b506040518060800160405280858152602001848152602001838152602001828152506001866040516102239190610f52565b9081526020016040518091039020600082015181600001908051906020019061024d929190610928565b50602082015181600101908051906020019061026a929190610975565b5060408201518160020190805190602001906102879291906108a8565b5060608201518160030190805190602001906102a49291906108a8565b509050505b5050505050565b600080600090505b6102c061019d565b81101561039c57610380600082815481106102d757fe5b906000526020600020018054600181600116156101000203166002900480601f0160208091040260200160405190810160405280929190818152602001828054600181600116156101000203166002900480156103755780601f1061034a57610100808354040283529160200191610375565b820191906000526020600020905b81548152906001019060200180831161035857829003601f168201915b505050505084610490565b1561038f5760019150506103a2565b80806001019150506102b8565b50600090505b919050565b60606000805480602002602001604051908101604052809291908181526020016000905b82821015610487578382906000526020600020018054600181600116156101000203166002900480601f0160208091040260200160405190810160405280929190818152602001828054600181600116156101000203166002900480156104735780601f1061044857610100808354040283529160200191610473565b820191906000526020600020905b81548152906001019060200180831161045657829003601f168201915b5050505050815260200190600101906103cb565b50505050905090565b6000816040516020016104a39190610f52565b60405160208183030381529060405280519060200120836040516020016104ca9190610f52565b6040516020818303038152906040528051906020012014905092915050565b600081815481106104f657fe5b906000526020600020016000915090508054600181600116156101000203166002900480601f01602080910402602001604051908101604052809291908181526020018280546001816001161561010002031660029004801561059a5780601f1061056f5761010080835404028352916020019161059a565b820191906000526020600020905b81548152906001019060200180831161057d57829003601f168201915b505050505081565b6060806060806001856040516105b89190610f52565b90815260200160405180910390206000016001866040516105d99190610f52565b90815260200160405180910390206001016001876040516105fa9190610f52565b908152602001604051809103902060020160018860405161061b9190610f52565b90815260200160405180910390206003018380548060200260200160405190810160405280929190818152602001828054801561067757602002820191906000526020600020905b815481526020019060010190808311610663575b5050505050935082805480602002602001604051908101604052809291908181526020016000905b8282101561075b578382906000526020600020018054600181600116156101000203166002900480601f0160208091040260200160405190810160405280929190818152602001828054600181600116156101000203166002900480156107475780601f1061071c57610100808354040283529160200191610747565b820191906000526020600020905b81548152906001019060200180831161072a57829003601f168201915b50505050508152602001906001019061069f565b505050509250818054600181600116156101000203166002900480601f0160208091040260200160405190810160405280929190818152602001828054600181600116156101000203166002900480156107f65780601f106107cb576101008083540402835291602001916107f6565b820191906000526020600020905b8154815290600101906020018083116107d957829003601f168201915b50505050509150808054600181600116156101000203166002900480601f0160208091040260200160405190810160405280929190818152602001828054600181600116156101000203166002900480156108925780601f1061086757610100808354040283529160200191610892565b820191906000526020600020905b81548152906001019060200180831161087557829003601f168201915b5050505050905093509350935093509193509193565b828054600181600116156101000203166002900490600052602060002090601f016020900481019282601f106108e957805160ff1916838001178555610917565b82800160010185558215610917579182015b828111156109165782518255916020019190600101906108fb565b5b50905061092491906109d5565b5090565b828054828255906000526020600020908101928215610964579160200282015b82811115610963578251825591602001919060010190610948565b5b50905061097191906109d5565b5090565b8280548282559060005260206000209081019282156109c4579160200282015b828111156109c35782518290805190602001906109b39291906108a8565b5091602001919060010190610995565b5b5090506109d191906109f2565b5090565b5b808211156109ee5760008160009055506001016109d6565b5090565b5b80821115610a125760008181610a099190610a16565b506001016109f3565b5090565b50805460018160011615610100020316600290046000825580601f10610a3c5750610a5b565b601f016020900490600052602060002090810190610a5a91906109d5565b5b50565b600082601f830112610a6f57600080fd5b8135610a82610a7d82611071565b611044565b9150818183526020840193506020810190508360005b83811015610ac85781358601610aae8882610b55565b845260208401935060208301925050600181019050610a98565b5050505092915050565b600082601f830112610ae357600080fd5b8135610af6610af182611099565b611044565b91508181835260208401935060208101905083856020840282011115610b1b57600080fd5b60005b83811015610b4b5781610b318882610ba9565b845260208401935060208301925050600181019050610b1e565b5050505092915050565b600082601f830112610b6657600080fd5b8135610b79610b74826110c1565b611044565b91508082526020830160208301858383011115610b9557600080fd5b610ba08382846111ad565b50505092915050565b600081359050610bb881611200565b92915050565b600060208284031215610bd057600080fd5b600082013567ffffffffffffffff811115610bea57600080fd5b610bf684828501610b55565b91505092915050565b600080600080600060a08688031215610c1757600080fd5b600086013567ffffffffffffffff811115610c3157600080fd5b610c3d88828901610b55565b955050602086013567ffffffffffffffff811115610c5a57600080fd5b610c6688828901610ad2565b945050604086013567ffffffffffffffff811115610c8357600080fd5b610c8f88828901610a5e565b935050606086013567ffffffffffffffff811115610cac57600080fd5b610cb888828901610b55565b925050608086013567ffffffffffffffff811115610cd557600080fd5b610ce188828901610b55565b9150509295509295909350565b60008060408385031215610d0157600080fd5b600083013567ffffffffffffffff811115610d1b57600080fd5b610d2785828601610b55565b925050602083013567ffffffffffffffff811115610d4457600080fd5b610d5085828601610b55565b9150509250929050565b600060208284031215610d6c57600080fd5b6000610d7a84828501610ba9565b91505092915050565b6000610d8f8383610e91565b905092915050565b6000610da38383610f34565b60208301905092915050565b6000610dba8261110d565b610dc48185611148565b935083602082028501610dd6856110ed565b8060005b85811015610e125784840389528151610df38582610d83565b9450610dfe8361112e565b925060208a01995050600181019050610dda565b50829750879550505050505092915050565b6000610e2f82611118565b610e398185611159565b9350610e44836110fd565b8060005b83811015610e75578151610e5c8882610d97565b9750610e678361113b565b925050600181019050610e48565b5085935050505092915050565b610e8b81611197565b82525050565b6000610e9c82611123565b610ea6818561116a565b9350610eb68185602086016111bc565b610ebf816111ef565b840191505092915050565b6000610ed582611123565b610edf818561117b565b9350610eef8185602086016111bc565b610ef8816111ef565b840191505092915050565b6000610f0e82611123565b610f18818561118c565b9350610f288185602086016111bc565b80840191505092915050565b610f3d816111a3565b82525050565b610f4c816111a3565b82525050565b6000610f5e8284610f03565b915081905092915050565b60006020820190508181036000830152610f838184610daf565b905092915050565b60006080820190508181036000830152610fa58187610e24565b90508181036020830152610fb98186610daf565b90508181036040830152610fcd8185610eca565b90508181036060830152610fe18184610eca565b905095945050505050565b60006020820190506110016000830184610e82565b92915050565b600060208201905081810360008301526110218184610eca565b905092915050565b600060208201905061103e6000830184610f43565b92915050565b6000604051905081810181811067ffffffffffffffff8211171561106757600080fd5b8060405250919050565b600067ffffffffffffffff82111561108857600080fd5b602082029050602081019050919050565b600067ffffffffffffffff8211156110b057600080fd5b602082029050602081019050919050565b600067ffffffffffffffff8211156110d857600080fd5b601f19601f8301169050602081019050919050565b6000819050602082019050919050565b6000819050602082019050919050565b600081519050919050565b600081519050919050565b600081519050919050565b6000602082019050919050565b6000602082019050919050565b600082825260208201905092915050565b600082825260208201905092915050565b600082825260208201905092915050565b600082825260208201905092915050565b600081905092915050565b60008115159050919050565b6000819050919050565b82818337600083830152505050565b60005b838110156111da5780820151818401526020810190506111bf565b838111156111e9576000848401525b50505050565b6000601f19601f8301169050919050565b611209816111a3565b811461121457600080fd5b5056fea26469706673582212201d9fb19a79a56629058a9ec2b67c3ba9553eb66dda8395de5261b67560aa323864736f6c63430007000033",
  "immutableReferences": {},
  "source": "pragma solidity ^0.7.0;\npragma experimental ABIEncoderV2;\n//SPDX-License-Identifier: MIT\n\ncontract Image { \n\n  struct ImageStruct{\n    uint[] confidences;\n    string[] tags;\n    //image json information\n    string imageInfo;\n    //gps json information\n    string gpsInfo;\n  }\n\n  string[] public imagesAddress;\n  mapping (string => ImageStruct) blocks;\n  //ImageStruct[] public blocks;\n\n\n  function set( \n    string memory _imagesAddress,\n    uint[] memory _confidences,\n    string[] memory _tags,\n    string  memory _imageInfo,\n    string memory _gpsInfo\n  ) public {\n    if(!contains(_imagesAddress)){\n      imagesAddress.push(_imagesAddress);\n      blocks[_imagesAddress] = ImageStruct({\n      confidences: _confidences,\n      tags: _tags,\n      imageInfo: _imageInfo,\n      gpsInfo: _gpsInfo\n      });\n    }\n  }\n\n  function getAllAddress() public view returns (string[] memory){\n    return imagesAddress;\n  }\n\n  function getByAddress(string memory _address) public view returns (\n    uint[] memory,\n    string[] memory,\n    string  memory,\n    string memory\n  ){\n    return (\n      blocks[_address].confidences,\n      blocks[_address].tags,\n      blocks[_address].imageInfo,\n      blocks[_address].gpsInfo\n    );\n  }\n\n  function length() public view returns (uint){\n    return imagesAddress.length;\n  }\n\n  function contains(string memory _address) public view returns (bool){\n    for(uint i = 0; i < length(); i++){\n      if(compareStringsbyBytes(imagesAddress[i], _address)) return true;\n    }\n    return false;\n  }\n\n  function compareStringsbyBytes(string memory s1, string memory s2) public pure returns(bool){\n    return keccak256(abi.encodePacked(s1)) == keccak256(abi.encodePacked(s2));\n  }\n\n}\n",
  "sourcePath": "/home/alessio/Scrivania/Cybersecurity/contracts/Image.sol",
  "compiler": {
    "name": "solc",
    "version": "0.7.0+commit.9e61f92b.Emscripten.clang"
  },
  "schemaVersion": "3.2.3",
  "updatedAt": "2020-08-25T13:17:13.302Z",
  "networkType": "quorum",
  "devdoc": {
    "kind": "dev",
    "methods": {},
    "version": 1
  },
  "userdoc": {
    "kind": "user",
    "methods": {},
    "version": 1
  }
}