{
  "contractName": "Image",
  "abi": [
    {
      "inputs": [
        {
          "internalType": "uint256",
          "name": "",
          "type": "uint256"
        }
      ],
      "name": "imagesAddress",
      "outputs": [
        {
          "internalType": "string",
          "name": "",
          "type": "string"
        }
      ],
      "stateMutability": "view",
      "type": "function",
      "constant": true
    },
    {
      "inputs": [
        {
          "internalType": "string",
          "name": "_imagesAddress",
          "type": "string"
        },
        {
          "internalType": "uint256[]",
          "name": "_confidences",
          "type": "uint256[]"
        },
        {
          "internalType": "string[]",
          "name": "_tags",
          "type": "string[]"
        },
        {
          "internalType": "string",
          "name": "_imageInfo",
          "type": "string"
        },
        {
          "internalType": "string",
          "name": "_gpsInfo",
          "type": "string"
        }
      ],
      "name": "set",
      "outputs": [],
      "stateMutability": "nonpayable",
      "type": "function"
    },
    {
      "inputs": [],
      "name": "getAllAddress",
      "outputs": [
        {
          "internalType": "string[]",
          "name": "",
          "type": "string[]"
        }
      ],
      "stateMutability": "view",
      "type": "function",
      "constant": true
    },
    {
      "inputs": [
        {
          "internalType": "string",
          "name": "_address",
          "type": "string"
        }
      ],
      "name": "getByAddress",
      "outputs": [
        {
          "internalType": "uint256[]",
          "name": "",
          "type": "uint256[]"
        },
        {
          "internalType": "string[]",
          "name": "",
          "type": "string[]"
        },
        {
          "internalType": "string",
          "name": "",
          "type": "string"
        },
        {
          "internalType": "string",
          "name": "",
          "type": "string"
        }
      ],
      "stateMutability": "view",
      "type": "function",
      "constant": true
    },
    {
      "inputs": [],
      "name": "length",
      "outputs": [
        {
          "internalType": "uint256",
          "name": "",
          "type": "uint256"
        }
      ],
      "stateMutability": "view",
      "type": "function",
      "constant": true
    },
    {
      "inputs": [
        {
          "internalType": "string",
          "name": "_address",
          "type": "string"
        }
      ],
      "name": "contains",
      "outputs": [
        {
          "internalType": "bool",
          "name": "",
          "type": "bool"
        }
      ],
      "stateMutability": "view",
      "type": "function",
      "constant": true
    },
    {
      "inputs": [
        {
          "internalType": "string",
          "name": "s1",
          "type": "string"
        },
        {
          "internalType": "string",
          "name": "s2",
          "type": "string"
        }
      ],
      "name": "compareStringsbyBytes",
      "outputs": [
        {
          "internalType": "bool",
          "name": "",
          "type": "bool"
        }
      ],
      "stateMutability": "pure",
      "type": "function",
      "constant": true
    }
  ],
  "bytecode": "0x608060405234801561001057600080fd5b5061135f806100206000396000f3fe608060405234801561001057600080fd5b506004361061007d5760003560e01c8063715b208b1161005b578063715b208b146100ec578063e9a734ff1461010a578063ec75cf611461013a578063ef6001b31461016a5761007d565b80631f7b6d321461008257806338351a72146100a05780636833d54f146100bc575b600080fd5b61008a61019d565b604051610097919061113b565b60405180910390f35b6100ba60048036038101906100b59190610d11565b6101a9565b005b6100d660048036038101906100d19190610cd0565b61039a565b6040516100e391906110fe565b60405180910390f35b6100f4610491565b604051610101919061107b565b60405180910390f35b610124600480360381019061011f9190610e00565b61057a565b60405161013191906110fe565b60405180910390f35b610154600480360381019061014f9190610e6c565b6105d3565b6040516101619190611119565b60405180910390f35b610184600480360381019061017f9190610cd0565b61068c565b604051610194949392919061109d565b60405180910390f35b60008080549050905090565b6101b28561039a565b6102ba576101be610992565b848160000181905250838160200181905250828160400181905250818160600181905250806001876040516101f39190611064565b9081526020016040518091039020600082015181600001908051906020019061021d9291906109ba565b50602082015181600101908051906020019061023a929190610a07565b506040820151816002019080519060200190610257929190610a67565b506060820151816003019080519060200190610274929190610a67565b509050506000869080600181540180825580915050600190039060005260206000200160009091909190915090805190602001906102b3929190610a67565b5050610393565b836001866040516102cb9190611064565b908152602001604051809103902060000190805190602001906102ef9291906109ba565b50826001866040516103019190611064565b90815260200160405180910390206001019080519060200190610325929190610a07565b50816001866040516103379190611064565b9081526020016040518091039020600201908051906020019061035b929190610a67565b508060018660405161036d9190611064565b90815260200160405180910390206003019080519060200190610391929190610a67565b505b5050505050565b600080600090505b6103aa61019d565b8110156104865761046a600082815481106103c157fe5b906000526020600020018054600181600116156101000203166002900480601f01602080910402602001604051908101604052809291908181526020018280546001816001161561010002031660029004801561045f5780601f106104345761010080835404028352916020019161045f565b820191906000526020600020905b81548152906001019060200180831161044257829003601f168201915b50505050508461057a565b1561047957600191505061048c565b80806001019150506103a2565b50600090505b919050565b60606000805480602002602001604051908101604052809291908181526020016000905b82821015610571578382906000526020600020018054600181600116156101000203166002900480601f01602080910402602001604051908101604052809291908181526020018280546001816001161561010002031660029004801561055d5780601f106105325761010080835404028352916020019161055d565b820191906000526020600020905b81548152906001019060200180831161054057829003601f168201915b5050505050815260200190600101906104b5565b50505050905090565b60008160405160200161058d9190611064565b60405160208183030381529060405280519060200120836040516020016105b49190611064565b6040516020818303038152906040528051906020012014905092915050565b600081815481106105e057fe5b906000526020600020016000915090508054600181600116156101000203166002900480601f0160208091040260200160405190810160405280929190818152602001828054600181600116156101000203166002900480156106845780601f1061065957610100808354040283529160200191610684565b820191906000526020600020905b81548152906001019060200180831161066757829003601f168201915b505050505081565b6060806060806001856040516106a29190611064565b90815260200160405180910390206000016001866040516106c39190611064565b90815260200160405180910390206001016001876040516106e49190611064565b90815260200160405180910390206002016001886040516107059190611064565b90815260200160405180910390206003018380548060200260200160405190810160405280929190818152602001828054801561076157602002820191906000526020600020905b81548152602001906001019080831161074d575b5050505050935082805480602002602001604051908101604052809291908181526020016000905b82821015610845578382906000526020600020018054600181600116156101000203166002900480601f0160208091040260200160405190810160405280929190818152602001828054600181600116156101000203166002900480156108315780601f1061080657610100808354040283529160200191610831565b820191906000526020600020905b81548152906001019060200180831161081457829003601f168201915b505050505081526020019060010190610789565b505050509250818054600181600116156101000203166002900480601f0160208091040260200160405190810160405280929190818152602001828054600181600116156101000203166002900480156108e05780601f106108b5576101008083540402835291602001916108e0565b820191906000526020600020905b8154815290600101906020018083116108c357829003601f168201915b50505050509150808054600181600116156101000203166002900480601f01602080910402602001604051908101604052809291908181526020018280546001816001161561010002031660029004801561097c5780601f106109515761010080835404028352916020019161097c565b820191906000526020600020905b81548152906001019060200180831161095f57829003601f168201915b5050505050905093509350935093509193509193565b6040518060800160405280606081526020016060815260200160608152602001606081525090565b8280548282559060005260206000209081019282156109f6579160200282015b828111156109f55782518255916020019190600101906109da565b5b509050610a039190610ae7565b5090565b828054828255906000526020600020908101928215610a56579160200282015b82811115610a55578251829080519060200190610a45929190610a67565b5091602001919060010190610a27565b5b509050610a639190610b04565b5090565b828054600181600116156101000203166002900490600052602060002090601f016020900481019282601f10610aa857805160ff1916838001178555610ad6565b82800160010185558215610ad6579182015b82811115610ad5578251825591602001919060010190610aba565b5b509050610ae39190610ae7565b5090565b5b80821115610b00576000816000905550600101610ae8565b5090565b5b80821115610b245760008181610b1b9190610b28565b50600101610b05565b5090565b50805460018160011615610100020316600290046000825580601f10610b4e5750610b6d565b601f016020900490600052602060002090810190610b6c9190610ae7565b5b50565b600082601f830112610b8157600080fd5b8135610b94610b8f82611183565b611156565b9150818183526020840193506020810190508360005b83811015610bda5781358601610bc08882610c67565b845260208401935060208301925050600181019050610baa565b5050505092915050565b600082601f830112610bf557600080fd5b8135610c08610c03826111ab565b611156565b91508181835260208401935060208101905083856020840282011115610c2d57600080fd5b60005b83811015610c5d5781610c438882610cbb565b845260208401935060208301925050600181019050610c30565b5050505092915050565b600082601f830112610c7857600080fd5b8135610c8b610c86826111d3565b611156565b91508082526020830160208301858383011115610ca757600080fd5b610cb28382846112bf565b50505092915050565b600081359050610cca81611312565b92915050565b600060208284031215610ce257600080fd5b600082013567ffffffffffffffff811115610cfc57600080fd5b610d0884828501610c67565b91505092915050565b600080600080600060a08688031215610d2957600080fd5b600086013567ffffffffffffffff811115610d4357600080fd5b610d4f88828901610c67565b955050602086013567ffffffffffffffff811115610d6c57600080fd5b610d7888828901610be4565b945050604086013567ffffffffffffffff811115610d9557600080fd5b610da188828901610b70565b935050606086013567ffffffffffffffff811115610dbe57600080fd5b610dca88828901610c67565b925050608086013567ffffffffffffffff811115610de757600080fd5b610df388828901610c67565b9150509295509295909350565b60008060408385031215610e1357600080fd5b600083013567ffffffffffffffff811115610e2d57600080fd5b610e3985828601610c67565b925050602083013567ffffffffffffffff811115610e5657600080fd5b610e6285828601610c67565b9150509250929050565b600060208284031215610e7e57600080fd5b6000610e8c84828501610cbb565b91505092915050565b6000610ea18383610fa3565b905092915050565b6000610eb58383611046565b60208301905092915050565b6000610ecc8261121f565b610ed6818561125a565b935083602082028501610ee8856111ff565b8060005b85811015610f245784840389528151610f058582610e95565b9450610f1083611240565b925060208a01995050600181019050610eec565b50829750879550505050505092915050565b6000610f418261122a565b610f4b818561126b565b9350610f568361120f565b8060005b83811015610f87578151610f6e8882610ea9565b9750610f798361124d565b925050600181019050610f5a565b5085935050505092915050565b610f9d816112a9565b82525050565b6000610fae82611235565b610fb8818561127c565b9350610fc88185602086016112ce565b610fd181611301565b840191505092915050565b6000610fe782611235565b610ff1818561128d565b93506110018185602086016112ce565b61100a81611301565b840191505092915050565b600061102082611235565b61102a818561129e565b935061103a8185602086016112ce565b80840191505092915050565b61104f816112b5565b82525050565b61105e816112b5565b82525050565b60006110708284611015565b915081905092915050565b600060208201905081810360008301526110958184610ec1565b905092915050565b600060808201905081810360008301526110b78187610f36565b905081810360208301526110cb8186610ec1565b905081810360408301526110df8185610fdc565b905081810360608301526110f38184610fdc565b905095945050505050565b60006020820190506111136000830184610f94565b92915050565b600060208201905081810360008301526111338184610fdc565b905092915050565b60006020820190506111506000830184611055565b92915050565b6000604051905081810181811067ffffffffffffffff8211171561117957600080fd5b8060405250919050565b600067ffffffffffffffff82111561119a57600080fd5b602082029050602081019050919050565b600067ffffffffffffffff8211156111c257600080fd5b602082029050602081019050919050565b600067ffffffffffffffff8211156111ea57600080fd5b601f19601f8301169050602081019050919050565b6000819050602082019050919050565b6000819050602082019050919050565b600081519050919050565b600081519050919050565b600081519050919050565b6000602082019050919050565b6000602082019050919050565b600082825260208201905092915050565b600082825260208201905092915050565b600082825260208201905092915050565b600082825260208201905092915050565b600081905092915050565b60008115159050919050565b6000819050919050565b82818337600083830152505050565b60005b838110156112ec5780820151818401526020810190506112d1565b838111156112fb576000848401525b50505050565b6000601f19601f8301169050919050565b61131b816112b5565b811461132657600080fd5b5056fea26469706673582212204659984ec26c8840a95f19bcfc7f01d8cb5022af7ce02e07f9a85830fe98f91664736f6c63430007000033",
  "immutableReferences": {},
  "source": "pragma solidity ^0.7.0;\npragma experimental ABIEncoderV2;\n//SPDX-License-Identifier: MIT\n\ncontract Image { \n\n  struct ImageStruct{\n    uint[] confidences;\n    string[] tags;\n    //image json information\n    string imageInfo;\n    //gps json information\n    string gpsInfo;\n  }\n\n  string[] public imagesAddress;\n  mapping (string => ImageStruct) blocks;\n  //ImageStruct[] public blocks;\n\n\n  function set( \n    string memory _imagesAddress,\n    uint[] memory _confidences,\n    string[] memory _tags,\n    string  memory _imageInfo,\n    string memory _gpsInfo\n  ) public {\n    if(!contains(_imagesAddress)){\n      ImageStruct memory newImage;\n      newImage.confidences = _confidences;\n      newImage.tags = _tags;\n      newImage.imageInfo = _imageInfo;\n      newImage.gpsInfo = _gpsInfo;\n      blocks[_imagesAddress] = newImage;\n      imagesAddress.push(_imagesAddress);\n    }\n    else{\n      blocks[_imagesAddress].confidences = _confidences;\n      blocks[_imagesAddress].tags = _tags;\n      blocks[_imagesAddress].imageInfo = _imageInfo;\n      blocks[_imagesAddress].gpsInfo = _gpsInfo;\n    }\n  }\n\n  function getAllAddress() public view returns (string[] memory){\n    return imagesAddress;\n  }\n\n  function getByAddress(string memory _address) public view returns (\n    uint[] memory,\n    string[] memory,\n    string  memory,\n    string memory\n  ){\n    return (\n      blocks[_address].confidences,\n      blocks[_address].tags,\n      blocks[_address].imageInfo,\n      blocks[_address].gpsInfo\n    );\n  }\n\n  function length() public view returns (uint){\n    return imagesAddress.length;\n  }\n\n  function contains(string memory _address) public view returns (bool){\n    for(uint i = 0; i < length(); i++){\n      if(compareStringsbyBytes(imagesAddress[i], _address)) return true;\n    }\n    return false;\n  }\n\n  function compareStringsbyBytes(string memory s1, string memory s2) public pure returns(bool){\n    return keccak256(abi.encodePacked(s1)) == keccak256(abi.encodePacked(s2));\n  }\n\n}\n",
  "sourcePath": "/home/alessio/Scrivania/Cybersecurity/contracts/Image.sol",
  "compiler": {
    "name": "solc",
    "version": "0.7.0+commit.9e61f92b.Emscripten.clang"
  },
  "schemaVersion": "3.2.3",
  "updatedAt": "2020-08-27T11:26:49.430Z",
  "networkType": "quorum",
  "devdoc": {
    "kind": "dev",
    "methods": {},
    "version": 1
  },
  "userdoc": {
    "kind": "user",
    "methods": {},
    "version": 1
  }
}